{
  "contractName": "KashDistribution",
  "abi": [
    {
      "constant": true,
      "inputs": [
        {
          "name": "",
          "type": "address"
        }
      ],
      "name": "airdropAdmins",
      "outputs": [
        {
          "name": "",
          "type": "bool"
        }
      ],
      "payable": false,
      "stateMutability": "view",
      "type": "function"
    },
    {
      "constant": true,
      "inputs": [],
      "name": "AVAILABLE_PRESALE_SUPPLY",
      "outputs": [
        {
          "name": "",
          "type": "uint256"
        }
      ],
      "payable": false,
      "stateMutability": "view",
      "type": "function"
    },
    {
      "constant": true,
      "inputs": [],
      "name": "AVAILABLE_AIRDROP_SUPPLY",
      "outputs": [
        {
          "name": "",
          "type": "uint256"
        }
      ],
      "payable": false,
      "stateMutability": "view",
      "type": "function"
    },
    {
      "constant": true,
      "inputs": [],
      "name": "AVAILABLE_BONUS3_SUPPLY",
      "outputs": [
        {
          "name": "",
          "type": "uint256"
        }
      ],
      "payable": false,
      "stateMutability": "view",
      "type": "function"
    },
    {
      "constant": true,
      "inputs": [],
      "name": "AVAILABLE_BONUS1_SUPPLY",
      "outputs": [
        {
          "name": "",
          "type": "uint256"
        }
      ],
      "payable": false,
      "stateMutability": "view",
      "type": "function"
    },
    {
      "constant": true,
      "inputs": [],
      "name": "INITIAL_SUPPLY",
      "outputs": [
        {
          "name": "",
          "type": "uint256"
        }
      ],
      "payable": false,
      "stateMutability": "view",
      "type": "function"
    },
    {
      "constant": true,
      "inputs": [],
      "name": "AVAILABLE_FOUNDER_SUPPLY",
      "outputs": [
        {
          "name": "",
          "type": "uint256"
        }
      ],
      "payable": false,
      "stateMutability": "view",
      "type": "function"
    },
    {
      "constant": true,
      "inputs": [
        {
          "name": "",
          "type": "address"
        }
      ],
      "name": "allocations",
      "outputs": [
        {
          "name": "AllocationSupply",
          "type": "uint8"
        },
        {
          "name": "endCliff",
          "type": "uint256"
        },
        {
          "name": "endVesting",
          "type": "uint256"
        },
        {
          "name": "totalAllocated",
          "type": "uint256"
        },
        {
          "name": "amountClaimed",
          "type": "uint256"
        }
      ],
      "payable": false,
      "stateMutability": "view",
      "type": "function"
    },
    {
      "constant": true,
      "inputs": [],
      "name": "startTime",
      "outputs": [
        {
          "name": "",
          "type": "uint256"
        }
      ],
      "payable": false,
      "stateMutability": "view",
      "type": "function"
    },
    {
      "constant": true,
      "inputs": [],
      "name": "KASH",
      "outputs": [
        {
          "name": "",
          "type": "address"
        }
      ],
      "payable": false,
      "stateMutability": "view",
      "type": "function"
    },
    {
      "constant": true,
      "inputs": [
        {
          "name": "",
          "type": "address"
        }
      ],
      "name": "airdrops",
      "outputs": [
        {
          "name": "",
          "type": "bool"
        }
      ],
      "payable": false,
      "stateMutability": "view",
      "type": "function"
    },
    {
      "constant": true,
      "inputs": [],
      "name": "owner",
      "outputs": [
        {
          "name": "",
          "type": "address"
        }
      ],
      "payable": false,
      "stateMutability": "view",
      "type": "function"
    },
    {
      "constant": true,
      "inputs": [],
      "name": "grandTotalClaimed",
      "outputs": [
        {
          "name": "",
          "type": "uint256"
        }
      ],
      "payable": false,
      "stateMutability": "view",
      "type": "function"
    },
    {
      "constant": true,
      "inputs": [],
      "name": "AVAILABLE_TOTAL_SUPPLY",
      "outputs": [
        {
          "name": "",
          "type": "uint256"
        }
      ],
      "payable": false,
      "stateMutability": "view",
      "type": "function"
    },
    {
      "constant": true,
      "inputs": [],
      "name": "AVAILABLE_BONUS2_SUPPLY",
      "outputs": [
        {
          "name": "",
          "type": "uint256"
        }
      ],
      "payable": false,
      "stateMutability": "view",
      "type": "function"
    },
    {
      "constant": true,
      "inputs": [],
      "name": "AVAILABLE_ADVISOR_SUPPLY",
      "outputs": [
        {
          "name": "",
          "type": "uint256"
        }
      ],
      "payable": false,
      "stateMutability": "view",
      "type": "function"
    },
    {
      "constant": false,
      "inputs": [
        {
          "name": "newOwner",
          "type": "address"
        }
      ],
      "name": "transferOwnership",
      "outputs": [],
      "payable": false,
      "stateMutability": "nonpayable",
      "type": "function"
    },
    {
      "constant": true,
      "inputs": [],
      "name": "AVAILABLE_RESERVE_SUPPLY",
      "outputs": [
        {
          "name": "",
          "type": "uint256"
        }
      ],
      "payable": false,
      "stateMutability": "view",
      "type": "function"
    },
    {
      "inputs": [
        {
          "name": "_startTime",
          "type": "uint256"
        }
      ],
      "payable": false,
      "stateMutability": "nonpayable",
      "type": "constructor"
    },
    {
      "anonymous": false,
      "inputs": [
        {
          "indexed": true,
          "name": "_recipient",
          "type": "address"
        },
        {
          "indexed": true,
          "name": "_fromSupply",
          "type": "uint8"
        },
        {
          "indexed": false,
          "name": "_totalAllocated",
          "type": "uint256"
        },
        {
          "indexed": false,
          "name": "_grandTotalAllocated",
          "type": "uint256"
        }
      ],
      "name": "LogNewAllocation",
      "type": "event"
    },
    {
      "anonymous": false,
      "inputs": [
        {
          "indexed": true,
          "name": "_recipient",
          "type": "address"
        },
        {
          "indexed": true,
          "name": "_fromSupply",
          "type": "uint8"
        },
        {
          "indexed": false,
          "name": "_amountClaimed",
          "type": "uint256"
        },
        {
          "indexed": false,
          "name": "_totalAllocated",
          "type": "uint256"
        },
        {
          "indexed": false,
          "name": "_grandTotalClaimed",
          "type": "uint256"
        }
      ],
      "name": "LogKashClaimed",
      "type": "event"
    },
    {
      "anonymous": false,
      "inputs": [
        {
          "indexed": true,
          "name": "previousOwner",
          "type": "address"
        },
        {
          "indexed": true,
          "name": "newOwner",
          "type": "address"
        }
      ],
      "name": "OwnershipTransferred",
      "type": "event"
    },
    {
      "constant": false,
      "inputs": [
        {
          "name": "_recipient",
          "type": "address"
        },
        {
          "name": "_totalAllocated",
          "type": "uint256"
        },
        {
          "name": "_supply",
          "type": "uint8"
        }
      ],
      "name": "setAllocation",
      "outputs": [],
      "payable": false,
      "stateMutability": "nonpayable",
      "type": "function"
    },
    {
      "constant": false,
      "inputs": [
        {
          "name": "_admin",
          "type": "address"
        },
        {
          "name": "_isAdmin",
          "type": "bool"
        }
      ],
      "name": "setAirdropAdmin",
      "outputs": [],
      "payable": false,
      "stateMutability": "nonpayable",
      "type": "function"
    },
    {
      "constant": false,
      "inputs": [
        {
          "name": "_recipient",
          "type": "address[]"
        }
      ],
      "name": "airdropTokens",
      "outputs": [],
      "payable": false,
      "stateMutability": "nonpayable",
      "type": "function"
    },
    {
      "constant": false,
      "inputs": [
        {
          "name": "_recipient",
          "type": "address"
        }
      ],
      "name": "transferTokens",
      "outputs": [],
      "payable": false,
      "stateMutability": "nonpayable",
      "type": "function"
    },
    {
      "constant": true,
      "inputs": [],
      "name": "grandTotalAllocated",
      "outputs": [
        {
          "name": "",
          "type": "uint256"
        }
      ],
      "payable": false,
      "stateMutability": "view",
      "type": "function"
    },
    {
      "constant": false,
      "inputs": [
        {
          "name": "_recipient",
          "type": "address"
        },
        {
          "name": "_token",
          "type": "address"
        }
      ],
      "name": "refundTokens",
      "outputs": [],
      "payable": false,
      "stateMutability": "nonpayable",
      "type": "function"
    }
  ],
  "bytecode": "0x60806040526b033b2e3c9fd0803ce80000006002556abe4064fbcc1d7ea60000006003556a7c13bc4b2c133c560000006004556a084595161401484a0000006005556a108b2a2c280290940000006006556b01a870adc460ff9cc08800006007556a204ddd42edb5c0650800006008556a07bcdf794aae4b49a000006009556a178df19602e8009ed00000600a556000600b553480156200009f57600080fd5b5060405160208062001ec8833981016040525160008054600160a060020a0319163317905542811015620000d257600080fd5b6200013860075462000123600a546200012360095462000123600854620001236006546200012360055462000123600454600354620001ac640100000000026200121c179091906401000000009004565b906401000000006200121c620001ac82021704565b600254146200014657600080fd5b600c8190553062000156620001c3565b600160a060020a03909116815260405190819003602001906000f08015801562000184573d6000803e3d6000fd5b5060018054600160a060020a031916600160a060020a039290921691909117905550620001d4565b600082820183811015620001bc57fe5b9392505050565b604051610a8d806200143b83390190565b61125780620001e46000396000f30060806040526004361061013d5763ffffffff7c01000000000000000000000000000000000000000000000000000000006000350416630c89a0df811461014257806310e823841461016557806312e43d921461019a5780631435e397146101c1578063162cbefe146101eb578063204b21d1146102005780632b41a901146102155780632ceae5521461022a5780632ff2e9dc1461023f57806334ac6f5e146102545780634ee51a271461026957806352a9039c146102be57806357f1935f1461030e57806378e979251461033557806379aa024e1461034a5780637eeeee4e146103705780638c86f0a7146103a15780638da5cb5b146103c25780639377530f146103d7578063a92259fc146103ec578063dc39537a14610401578063ed0e466514610416578063f2fde38b1461042b578063fefc70891461044c575b600080fd5b34801561014e57600080fd5b50610163600160a060020a0360043516610461565b005b34801561017157600080fd5b50610186600160a060020a03600435166106fa565b604080519115158252519081900360200190f35b3480156101a657600080fd5b506101af61070f565b60408051918252519081900360200190f35b3480156101cd57600080fd5b50610163600160a060020a036004351660243560ff60443516610715565b3480156101f757600080fd5b506101af610ca6565b34801561020c57600080fd5b506101af610cac565b34801561022157600080fd5b506101af610cb2565b34801561023657600080fd5b506101af610cc6565b34801561024b57600080fd5b506101af610ccc565b34801561026057600080fd5b506101af610cdc565b34801561027557600080fd5b506040805160206004803580820135838102808601850190965280855261016395369593946024949385019291829185019084908082843750949750610ce29650505050505050565b3480156102ca57600080fd5b506102df600160a060020a0360043516610eec565b6040805160ff909616865260208601949094528484019290925260608401526080830152519081900360a00190f35b34801561031a57600080fd5b50610163600160a060020a0360043581169060243516610f1f565b34801561034157600080fd5b506101af611090565b34801561035657600080fd5b50610163600160a060020a03600435166024351515611096565b34801561037c57600080fd5b506103856110d8565b60408051600160a060020a039092168252519081900360200190f35b3480156103ad57600080fd5b50610186600160a060020a03600435166110e7565b3480156103ce57600080fd5b506103856110fc565b3480156103e357600080fd5b506101af61110b565b3480156103f857600080fd5b506101af611111565b34801561040d57600080fd5b506101af611117565b34801561042257600080fd5b506101af61111d565b34801561043757600080fd5b50610163600160a060020a0360043516611123565b34801561045857600080fd5b506101af6111b7565b600160a060020a0381166000908152600d60205260408120600381015460049091015482911161049057600080fd5b600160a060020a0383166000908152600d60205260409020600101544210156104b857600080fd5b600c544210156104c757600080fd5b600160a060020a0383166000908152600d602052604090206002015442101561057057600c54600160a060020a0384166000908152600d60205260409020600201546105699161051d919063ffffffff6111bd16565b61055d610535600c54426111bd90919063ffffffff16565b600160a060020a0387166000908152600d60205260409020600301549063ffffffff6111cf16565b9063ffffffff61120516565b915061058f565b600160a060020a0383166000908152600d602052604090206003015491505b600160a060020a0383166000908152600d60205260409020600401546105bc90839063ffffffff6111bd16565b600160a060020a038085166000818152600d60209081526040808320600490810189905560015482517fa9059cbb00000000000000000000000000000000000000000000000000000000815291820195909552602481018790529051959650929093169363a9059cbb936044808501949193918390030190829087803b15801561064557600080fd5b505af1158015610659573d6000803e3d6000fd5b505050506040513d602081101561066f57600080fd5b5051151561067c57600080fd5b600b5461068f908263ffffffff61121c16565b600b819055600160a060020a0384166000818152600d602090815260409182902054825186815291820187905281830194909452905160ff909316927f6a7e840836d13c939daf1d82c83f1bc8869f5dae89ed12a2813a587b4363a8749181900360600190a3505050565b600e6020526000908152604090205460ff1681565b60035481565b600054600160a060020a0316331461072c57600080fd5b600160a060020a0383166000908152600d60205260409020600301541580156107555750600082115b151561076057600080fd5b600081600781111561076e57fe5b101580156107885750600781600781111561078557fe5b11155b151561079357600080fd5b600160a060020a03831615156107a857600080fd5b60008160078111156107b657fe5b1415610846576003546107cf908363ffffffff6111bd16565b60039081556040805160a081018252600080825260208083018281528385018381526060850189815260808601858152600160a060020a038c168652600d909452959093209351845460ff191660ff9091161784555160018401559051600283015591519281019290925551600490910155610c33565b600181600781111561085457fe5b14156108f75760045461086d908363ffffffff6111bd16565b60049081556040805160a0810182526001808252600c546301e13380810160208085019182526305a39a8090920184860190815260608501898152600060808701818152600160a060020a038d168252600d909552969096209451855460ff191660ff90911617855590519284019290925590516002830155915160038201559051910155610c33565b600381600781111561090557fe5b141561099d5760065461091e908363ffffffff6111bd16565b6006556040805160a0810182526003808252600c54630113898001602080840191825260008486018181526060860189815260808701838152600160a060020a038c168452600d909452969091209451855460ff191660ff90911617855591516001850155905160028401559251908201559051600490910155610c33565b60048160078111156109ab57fe5b1415610a48576007546109c4908363ffffffff6111bd16565b6007556040805160a0810182526004808252600c546283d60081016020808501918252630784ce0090920184860190815260608501888152600060808701818152600160a060020a038c168252600d909552969096209451855460ff191660ff90911617855590516001850155516002840155925160038301559151910155610c33565b6005816007811115610a5657fe5b1415610aed57600854610a6f908363ffffffff6111bd16565b6008556040805160a08101825260058152600c546301e1338001602080830182815283850192835260608401878152600060808601818152600160a060020a038b168252600d909452959095209351845460ff191660ff90911617845551600184015590516002830155915160038201559051600490910155610c33565b6006816007811115610afb57fe5b1415610b9257600954610b14908363ffffffff6111bd16565b6009556040805160a08101825260068152600c546303c2670001602080830182815283850192835260608401878152600060808601818152600160a060020a038b168252600d909452959095209351845460ff191660ff90911617845551600184015590516002830155915160038201559051600490910155610c33565b6007816007811115610ba057fe5b1415610c3357600a54610bb9908363ffffffff6111bd16565b600a556040805160a08101825260078152600c546305a39a8001602080830182815283850192835260608401878152600060808601818152600160a060020a038b168252600d909452959095209351845460ff191660ff909116178455516001840155905160028301559151600382015590516004909101555b600254610c46908363ffffffff6111bd16565b600255806007811115610c5557fe5b83600160a060020a03167f1ee7c4bce4c301d0c55622a01f860f1b71b72f582250922fa662d173c32164ff84610c89610cb2565b6040805192835260208301919091528051918290030190a3505050565b60055481565b600a5481565b6002546b033b2e3c9fd0803ce80000000390565b60085481565b6b033b2e3c9fd0803ce800000081565b60045481565b600080548190600160a060020a0316331480610d0d5750336000908152600e602052604090205460ff165b1515610d1857600080fd5b600c54421015610d2757600080fd5b5060005b8251811015610ea557600f60008483815181101515610d4657fe5b6020908102909101810151600160a060020a031682528101919091526040016000205460ff161515610e9d576001600f60008584815181101515610d8657fe5b602090810291909101810151600160a060020a03908116835290820192909252604001600020805460ff191692151592909217909155600154845191169063a9059cbb90859084908110610dd657fe5b6020908102909101810151604080517c010000000000000000000000000000000000000000000000000000000063ffffffff8616028152600160a060020a039092166004830152680d8d726b7177a80000602483015251604480830193928290030181600087803b158015610e4a57600080fd5b505af1158015610e5e573d6000803e3d6000fd5b505050506040513d6020811015610e7457600080fd5b50511515610e8157600080fd5b610e9a82680d8d726b7177a8000063ffffffff61121c16565b91505b600101610d2b565b600554610eb8908363ffffffff6111bd16565b600555600254610ece908363ffffffff6111bd16565b600255600b54610ee4908363ffffffff61121c16565b600b55505050565b600d602052600090815260409020805460018201546002830154600384015460049094015460ff90931693919290919085565b600080548190600160a060020a03163314610f3957600080fd5b600154600160a060020a0384811691161415610f5457600080fd5b604080517f70a082310000000000000000000000000000000000000000000000000000000081523060048201529051849350600160a060020a038416916370a082319160248083019260209291908290030181600087803b158015610fb857600080fd5b505af1158015610fcc573d6000803e3d6000fd5b505050506040513d6020811015610fe257600080fd5b5051604080517fa9059cbb000000000000000000000000000000000000000000000000000000008152600160a060020a0387811660048301526024820184905291519293509084169163a9059cbb916044808201926020929091908290030181600087803b15801561105357600080fd5b505af1158015611067573d6000803e3d6000fd5b505050506040513d602081101561107d57600080fd5b5051151561108a57600080fd5b50505050565b600c5481565b600054600160a060020a031633146110ad57600080fd5b600160a060020a03919091166000908152600e60205260409020805460ff1916911515919091179055565b600154600160a060020a031681565b600f6020526000908152604090205460ff1681565b600054600160a060020a031681565b600b5481565b60025481565b60095481565b60065481565b600054600160a060020a0316331461113a57600080fd5b600160a060020a038116151561114f57600080fd5b60008054604051600160a060020a03808516939216917f8be0079c531659141344cd1fd0a4f28419497f9722a3daafe3b4186f6b6457e091a36000805473ffffffffffffffffffffffffffffffffffffffff1916600160a060020a0392909216919091179055565b60075481565b6000828211156111c957fe5b50900390565b6000808315156111e257600091506111fe565b508282028284828115156111f257fe5b04146111fa57fe5b8091505b5092915050565b600080828481151561121357fe5b04949350505050565b6000828201838110156111fa57fe00a165627a7a723058200cbf17f6de6889502c9c8f138b1d39d6b44dc2b843758a89d1dbeea554304180002960c0604052600460808190527f4b6173680000000000000000000000000000000000000000000000000000000060a090815261003e916000919061011b565b506040805180820190915260048082527f4b4153480000000000000000000000000000000000000000000000000000000060209092019182526100839160019161011b565b5034801561009057600080fd5b50604051602080610a8d8339810160405251600160a060020a03811615156100b757600080fd5b600160a060020a03811660008181526002602090815260408083206b033b2e3c9fd0803ce800000090819055815190815290517fddf252ad1be2c89b69c2b068fc378daa952ba7f163c4a11628f55a4df523b3ef929181900390910190a3506101b6565b828054600181600116156101000203166002900490600052602060002090601f016020900481019282601f1061015c57805160ff1916838001178555610189565b82800160010185558215610189579182015b8281111561018957825182559160200191906001019061016e565b50610195929150610199565b5090565b6101b391905b80821115610195576000815560010161019f565b90565b6108c8806101c56000396000f3006080604052600436106100b95763ffffffff7c010000000000000000000000000000000000000000000000000000000060003504166306fdde0381146100be578063095ea7b31461014857806318160ddd1461018057806323b872dd146101a7578063313ce567146101d157806366188463146101fc5780636d6a6a4d1461022057806370a082311461023557806395d89b4114610256578063a9059cbb1461026b578063d73dd6231461028f578063dd62ed3e146102b3575b600080fd5b3480156100ca57600080fd5b506100d36102da565b6040805160208082528351818301528351919283929083019185019080838360005b8381101561010d5781810151838201526020016100f5565b50505050905090810190601f16801561013a5780820380516001836020036101000a031916815260200191505b509250505060405180910390f35b34801561015457600080fd5b5061016c600160a060020a0360043516602435610368565b604080519115158252519081900360200190f35b34801561018c57600080fd5b506101956103ce565b60408051918252519081900360200190f35b3480156101b357600080fd5b5061016c600160a060020a03600435811690602435166044356103de565b3480156101dd57600080fd5b506101e6610557565b6040805160ff9092168252519081900360200190f35b34801561020857600080fd5b5061016c600160a060020a036004351660243561055c565b34801561022c57600080fd5b5061019561064c565b34801561024157600080fd5b50610195600160a060020a0360043516610658565b34801561026257600080fd5b506100d3610673565b34801561027757600080fd5b5061016c600160a060020a03600435166024356106cd565b34801561029b57600080fd5b5061016c600160a060020a03600435166024356107b0565b3480156102bf57600080fd5b50610195600160a060020a0360043581169060243516610849565b6000805460408051602060026001851615610100026000190190941693909304601f810184900484028201840190925281815292918301828280156103605780601f1061033557610100808354040283529160200191610360565b820191906000526020600020905b81548152906001019060200180831161034357829003601f168201915b505050505081565b336000818152600360209081526040808320600160a060020a038716808552908352818420869055815186815291519394909390927f8c5be1e5ebec7d5bd14f71427d1e84f3dd0314c0f7b2291e5b200ac8c7c3b925928290030190a350600192915050565b6b033b2e3c9fd0803ce800000081565b6000600160a060020a03831615156103f557600080fd5b600160a060020a03841660009081526002602052604090205482111561041a57600080fd5b600160a060020a038416600090815260036020908152604080832033845290915290205482111561044a57600080fd5b600160a060020a038416600090815260026020526040902054610473908363ffffffff61087416565b600160a060020a0380861660009081526002602052604080822093909355908516815220546104a8908363ffffffff61088616565b600160a060020a0380851660009081526002602090815260408083209490945591871681526003825282812033825290915220546104ec908363ffffffff61087416565b600160a060020a03808616600081815260036020908152604080832033845282529182902094909455805186815290519287169391927fddf252ad1be2c89b69c2b068fc378daa952ba7f163c4a11628f55a4df523b3ef929181900390910190a35060019392505050565b601281565b336000908152600360209081526040808320600160a060020a0386168452909152812054808311156105b157336000908152600360209081526040808320600160a060020a03881684529091528120556105e6565b6105c1818463ffffffff61087416565b336000908152600360209081526040808320600160a060020a03891684529091529020555b336000818152600360209081526040808320600160a060020a0389168085529083529281902054815190815290519293927f8c5be1e5ebec7d5bd14f71427d1e84f3dd0314c0f7b2291e5b200ac8c7c3b925929181900390910190a35060019392505050565b670de0b6b3a764000081565b600160a060020a031660009081526002602052604090205490565b60018054604080516020600284861615610100026000190190941693909304601f810184900484028201840190925281815292918301828280156103605780601f1061033557610100808354040283529160200191610360565b6000600160a060020a03831615156106e457600080fd5b3360009081526002602052604090205482111561070057600080fd5b33600090815260026020526040902054610720908363ffffffff61087416565b3360009081526002602052604080822092909255600160a060020a03851681522054610752908363ffffffff61088616565b600160a060020a0384166000818152600260209081526040918290209390935580518581529051919233927fddf252ad1be2c89b69c2b068fc378daa952ba7f163c4a11628f55a4df523b3ef9281900390910190a350600192915050565b336000908152600360209081526040808320600160a060020a03861684529091528120546107e4908363ffffffff61088616565b336000818152600360209081526040808320600160a060020a0389168085529083529281902085905580519485525191937f8c5be1e5ebec7d5bd14f71427d1e84f3dd0314c0f7b2291e5b200ac8c7c3b925929081900390910190a350600192915050565b600160a060020a03918216600090815260036020908152604080832093909416825291909152205490565b60008282111561088057fe5b50900390565b60008282018381101561089557fe5b93925050505600a165627a7a723058200e2440ac788cdc81246fcf37d705d9583204ae038e6ab0bee44db64b7c43c0120029",
  "source": "pragma solidity ^0.4.18;\n\nimport './interfaces/IERC20.sol';\nimport './KashToken.sol';\nimport './SafeMath.sol';\nimport './Ownable.sol';\n\n/**\n * @title KASH token initial distribution\n *\n * @dev Distribute purchasers, airdrop, reserve, and founder tokens\n */\ncontract KashDistribution is Ownable {\n  using SafeMath for uint256;\n\n  KashToken public KASH;\n\n  uint256 private constant decimalFactor = 10**uint256(18);\n  enum AllocationType { PRESALE, FOUNDER, AIRDROP, ADVISOR, RESERVE, BONUS1, BONUS2, BONUS3 }\n  uint256 public constant INITIAL_SUPPLY   = 1000000000 * decimalFactor;\n  uint256 public AVAILABLE_TOTAL_SUPPLY    = 1000000000 * decimalFactor;\n  uint256 public AVAILABLE_PRESALE_SUPPLY  =  230000000 * decimalFactor; // 100% Released at Token Distribution (TD)\n  uint256 public AVAILABLE_FOUNDER_SUPPLY  =  150000000 * decimalFactor; // 33% Released at TD +1 year -> 100% at TD +3 years\n  uint256 public AVAILABLE_AIRDROP_SUPPLY  =   10000000 * decimalFactor; // 100% Released at TD\n  uint256 public AVAILABLE_ADVISOR_SUPPLY  =   20000000 * decimalFactor; // 100% Released at TD +7 months\n  uint256 public AVAILABLE_RESERVE_SUPPLY  =  513116658 * decimalFactor; // 6.8% Released at TD +100 days -> 100% at TD +4 years\n  uint256 public AVAILABLE_BONUS1_SUPPLY  =    39053330 * decimalFactor; // 100% Released at TD +1 year\n  uint256 public AVAILABLE_BONUS2_SUPPLY  =     9354408 * decimalFactor; // 100% Released at TD +2 years\n  uint256 public AVAILABLE_BONUS3_SUPPLY  =    28475604 * decimalFactor; // 100% Released at TD +3 years\n\n  uint256 public grandTotalClaimed = 0;\n  uint256 public startTime;\n\n  // Allocation with vesting information\n  struct Allocation {\n    uint8 AllocationSupply; // Type of allocation\n    uint256 endCliff;       // Tokens are locked until\n    uint256 endVesting;     // This is when the tokens are fully unvested\n    uint256 totalAllocated; // Total tokens allocated\n    uint256 amountClaimed;  // Total tokens claimed\n  }\n  mapping (address => Allocation) public allocations;\n\n  // List of admins\n  mapping (address => bool) public airdropAdmins;\n\n  // Keeps track of whether or not a 250 KASH airdrop has been made to a particular address\n  mapping (address => bool) public airdrops;\n\n  modifier onlyOwnerOrAdmin() {\n    require(msg.sender == owner || airdropAdmins[msg.sender]);\n    _;\n  }\n\n  event LogNewAllocation(address indexed _recipient, AllocationType indexed _fromSupply, uint256 _totalAllocated, uint256 _grandTotalAllocated);\n  event LogKashClaimed(address indexed _recipient, uint8 indexed _fromSupply, uint256 _amountClaimed, uint256 _totalAllocated, uint256 _grandTotalClaimed);\n\n  /**\n    * @dev Constructor function - Set the poly token address\n    * @param _startTime The time when KashDistribution goes live\n    */\n  function KashDistribution(uint256 _startTime) public {\n    require(_startTime >= now);\n    require(AVAILABLE_TOTAL_SUPPLY == AVAILABLE_PRESALE_SUPPLY.add(AVAILABLE_FOUNDER_SUPPLY).add(AVAILABLE_AIRDROP_SUPPLY).add(AVAILABLE_ADVISOR_SUPPLY).add(AVAILABLE_BONUS1_SUPPLY).add(AVAILABLE_BONUS2_SUPPLY).add(AVAILABLE_BONUS3_SUPPLY).add(AVAILABLE_RESERVE_SUPPLY));\n    startTime = _startTime;\n    KASH = new KashToken(this);\n  }\n\n  /**\n    * @dev Allow the owner of the contract to assign a new allocation\n    * @param _recipient The recipient of the allocation\n    * @param _totalAllocated The total amount of KASH available to the receipient (after vesting)\n    * @param _supply The KASH supply the allocation will be taken from\n    */\n  function setAllocation (address _recipient, uint256 _totalAllocated, AllocationType _supply) onlyOwner public {\n    require(allocations[_recipient].totalAllocated == 0 && _totalAllocated > 0);\n    require(_supply >= AllocationType.PRESALE && _supply <= AllocationType.BONUS3);\n    require(_recipient != address(0));\n    if (_supply == AllocationType.PRESALE) {\n      AVAILABLE_PRESALE_SUPPLY = AVAILABLE_PRESALE_SUPPLY.sub(_totalAllocated);\n      allocations[_recipient] = Allocation(uint8(AllocationType.PRESALE), 0, 0, _totalAllocated, 0);\n    } else if (_supply == AllocationType.FOUNDER) {\n      AVAILABLE_FOUNDER_SUPPLY = AVAILABLE_FOUNDER_SUPPLY.sub(_totalAllocated);\n      allocations[_recipient] = Allocation(uint8(AllocationType.FOUNDER), startTime + 1 years, startTime + 3 years, _totalAllocated, 0);\n    } else if (_supply == AllocationType.ADVISOR) {\n      AVAILABLE_ADVISOR_SUPPLY = AVAILABLE_ADVISOR_SUPPLY.sub(_totalAllocated);\n      allocations[_recipient] = Allocation(uint8(AllocationType.ADVISOR), startTime + 209 days, 0, _totalAllocated, 0);\n    } else if (_supply == AllocationType.RESERVE) {\n      AVAILABLE_RESERVE_SUPPLY = AVAILABLE_RESERVE_SUPPLY.sub(_totalAllocated);\n      allocations[_recipient] = Allocation(uint8(AllocationType.RESERVE), startTime + 100 days, startTime + 4 years, _totalAllocated, 0);\n    } else if (_supply == AllocationType.BONUS1) {\n      AVAILABLE_BONUS1_SUPPLY = AVAILABLE_BONUS1_SUPPLY.sub(_totalAllocated);\n      allocations[_recipient] = Allocation(uint8(AllocationType.BONUS1), startTime + 1 years, startTime + 1 years, _totalAllocated, 0);\n    } else if (_supply == AllocationType.BONUS2) {\n      AVAILABLE_BONUS2_SUPPLY = AVAILABLE_BONUS2_SUPPLY.sub(_totalAllocated);\n      allocations[_recipient] = Allocation(uint8(AllocationType.BONUS2), startTime + 2 years, startTime + 2 years, _totalAllocated, 0);\n    } else if (_supply == AllocationType.BONUS3) {\n      AVAILABLE_BONUS3_SUPPLY = AVAILABLE_BONUS3_SUPPLY.sub(_totalAllocated);\n      allocations[_recipient] = Allocation(uint8(AllocationType.BONUS3), startTime + 3 years, startTime + 3 years, _totalAllocated, 0);\n    }\n    AVAILABLE_TOTAL_SUPPLY = AVAILABLE_TOTAL_SUPPLY.sub(_totalAllocated);\n    LogNewAllocation(_recipient, _supply, _totalAllocated, grandTotalAllocated());\n  }\n\n  /**\n    * @dev Add an airdrop admin\n    */\n  function setAirdropAdmin(address _admin, bool _isAdmin) public onlyOwner {\n    airdropAdmins[_admin] = _isAdmin;\n  }\n\n  /**\n    * @dev perform a transfer of allocations\n    * @param _recipient is a list of recipients\n    */\n  function airdropTokens(address[] _recipient) public onlyOwnerOrAdmin {\n    require(now >= startTime);\n    uint airdropped;\n    for(uint256 i = 0; i< _recipient.length; i++)\n    {\n        if (!airdrops[_recipient[i]]) {\n          airdrops[_recipient[i]] = true;\n          require(KASH.transfer(_recipient[i], 250 * decimalFactor));\n          airdropped = airdropped.add(250 * decimalFactor);\n        }\n    }\n    AVAILABLE_AIRDROP_SUPPLY = AVAILABLE_AIRDROP_SUPPLY.sub(airdropped);\n    AVAILABLE_TOTAL_SUPPLY = AVAILABLE_TOTAL_SUPPLY.sub(airdropped);\n    grandTotalClaimed = grandTotalClaimed.add(airdropped);\n  }\n\n  /**\n    * @dev Transfer a recipients available allocation to their address\n    * @param _recipient The address to withdraw tokens for\n    */\n  function transferTokens (address _recipient) public {\n    require(allocations[_recipient].amountClaimed < allocations[_recipient].totalAllocated);\n    require(now >= allocations[_recipient].endCliff);\n    require(now >= startTime);\n    uint256 newAmountClaimed;\n    if (allocations[_recipient].endVesting > now) {\n      // Transfer available amount based on vesting schedule and allocation\n      newAmountClaimed = allocations[_recipient].totalAllocated.mul(now.sub(startTime)).div(allocations[_recipient].endVesting.sub(startTime));\n    } else {\n      // Transfer total allocated (minus previously claimed tokens)\n      newAmountClaimed = allocations[_recipient].totalAllocated;\n    }\n    uint256 tokensToTransfer = newAmountClaimed.sub(allocations[_recipient].amountClaimed);\n    allocations[_recipient].amountClaimed = newAmountClaimed;\n    require(KASH.transfer(_recipient, tokensToTransfer));\n    grandTotalClaimed = grandTotalClaimed.add(tokensToTransfer);\n    LogKashClaimed(_recipient, allocations[_recipient].AllocationSupply, tokensToTransfer, newAmountClaimed, grandTotalClaimed);\n  }\n\n  // Returns the amount of KASH allocated\n  function grandTotalAllocated() public view returns (uint256) {\n    return INITIAL_SUPPLY - AVAILABLE_TOTAL_SUPPLY;\n  }\n\n  // Allow transfer of accidentally sent ERC20 tokens\n  function refundTokens(address _recipient, address _token) public onlyOwner {\n    require(_token != address(KASH));\n    IERC20 token = IERC20(_token);\n    uint256 balance = token.balanceOf(this);\n    require(token.transfer(_recipient, balance));\n  }\n}\n",
  "sourcePath": "/Users/Shady/kashDistribution/contracts/KashDistribution.sol",
  "compiler": {
    "name": "solc",
    "version": "0.4.24+commit.e67f0147.Emscripten.clang"
  },
  "schemaVersion": "2.0.1",
  "updatedAt": "2018-10-02T08:41:57.949Z"
}